{
  "contractName": "demo",
  "abi": [
    {
      "inputs": [],
      "name": "numoffunder",
      "outputs": [
        {
          "internalType": "uint256",
          "name": "",
          "type": "uint256"
        }
      ],
      "stateMutability": "view",
      "type": "function",
      "constant": true
    },
    {
      "stateMutability": "payable",
      "type": "receive",
      "payable": true
    },
    {
      "inputs": [],
      "name": "transfer_tocontract",
      "outputs": [],
      "stateMutability": "payable",
      "type": "function",
      "payable": true
    },
    {
      "inputs": [
        {
          "internalType": "uint256",
          "name": "withdrawAmount",
          "type": "uint256"
        }
      ],
      "name": "withdraw",
      "outputs": [],
      "stateMutability": "payable",
      "type": "function",
      "payable": true
    },
    {
      "inputs": [
        {
          "internalType": "uint256",
          "name": "value",
          "type": "uint256"
        }
      ],
      "name": "setvalue",
      "outputs": [],
      "stateMutability": "nonpayable",
      "type": "function"
    },
    {
      "inputs": [],
      "name": "getvalue",
      "outputs": [
        {
          "internalType": "uint256",
          "name": "",
          "type": "uint256"
        }
      ],
      "stateMutability": "view",
      "type": "function",
      "constant": true
    }
  ],
  "bytecode": "0x608060405234801561001057600080fd5b5061036e806100206000396000f3fe60806040526004361061004e5760003560e01c80630b4745ec1461005a5780632e1a7d4d14610083578063650be2041461009f57806369bd01c4146100a9578063baa15359146100d457610055565b3661005557005b600080fd5b34801561006657600080fd5b50610081600480360381019061007c919061023e565b6100ff565b005b61009d6004803603810190610098919061023e565b610109565b005b6100a761019e565b005b3480156100b557600080fd5b506100be6101f4565b6040516100cb919061027a565b60405180910390f35b3480156100e057600080fd5b506100e96101fd565b6040516100f6919061027a565b60405180910390f35b8060008190555050565b671bc16d674ec80000811115610154576040517f08c379a000000000000000000000000000000000000000000000000000000000815260040161014b90610318565b60405180910390fd5b3373ffffffffffffffffffffffffffffffffffffffff166108fc829081150290604051600060405180830381858888f1935050505015801561019a573d6000803e3d6000fd5b5050565b3360026000600154815260200190815260200160002060006101000a81548173ffffffffffffffffffffffffffffffffffffffff021916908373ffffffffffffffffffffffffffffffffffffffff160217905550565b60008054905090565b60015481565b600080fd5b6000819050919050565b61021b81610208565b811461022657600080fd5b50565b60008135905061023881610212565b92915050565b60006020828403121561025457610253610203565b5b600061026284828501610229565b91505092915050565b61027481610208565b82525050565b600060208201905061028f600083018461026b565b92915050565b600082825260208201905092915050565b7f43616e6e6f74207769746864726177206d6f7265207468616e2032206574686560008201527f7200000000000000000000000000000000000000000000000000000000000000602082015250565b6000610302602183610295565b915061030d826102a6565b604082019050919050565b60006020820190508181036000830152610331816102f5565b905091905056fea2646970667358221220605987aa9eb442c8d379fd2b73870d683d2187c2dac36e1c397a552f610ede4764736f6c63430008110033",
  "immutableReferences": {},
  "source": "// SPDX-License-Identifier: UNLICENCED\r\npragma solidity ^0.8.7;\r\ncontract demo{\r\n    uint tomato;\r\n\r\n    receive() external payable{}\r\n\r\n\r\n\r\n    uint public numoffunder;    \r\n    mapping (uint => address) private funders;\r\n    \r\n    function transfer_tocontract() external payable{\r\n        funders[numoffunder] = msg.sender;\r\n    }\r\n    function withdraw(uint withdrawAmount) external payable{\r\n        require(\r\n            withdrawAmount <= 2000000000000000000,\r\n            \"Cannot withdraw more than 2 ether\"\r\n        );\r\n        payable(msg.sender).transfer(withdrawAmount);\r\n        \r\n    }\r\n\r\n\r\n    //setting and getting value of tomato\r\n    function setvalue(uint value) public {\r\n        tomato = value;\r\n    }\r\n\r\n    function getvalue() view public returns(uint){\r\n        return tomato;\r\n    }\r\n}   ",
  "sourcePath": "D:\\Practice Code\\Learn-React\\contracts\\demo.sol",
  "compiler": {
    "name": "solc",
    "version": "0.8.17+commit.8df45f5f.Emscripten.clang"
  },
  "schemaVersion": "3.4.11",
  "updatedAt": "2022-11-29T10:23:57.561Z",
  "networkType": "ethereum",
  "devdoc": {
    "kind": "dev",
    "methods": {},
    "version": 1
  },
  "userdoc": {
    "kind": "user",
    "methods": {},
    "version": 1
  }
}